{
  "_format": "hh-sol-artifact-1",
  "contractName": "Storeama",
  "sourceName": "contracts/storeama.sol",
  "abi": [
    {
      "inputs": [],
      "stateMutability": "nonpayable",
      "type": "constructor"
    },
    {
      "anonymous": false,
      "inputs": [
        {
          "indexed": false,
          "internalType": "string",
          "name": "name",
          "type": "string"
        },
        {
          "indexed": false,
          "internalType": "string",
          "name": "docType",
          "type": "string"
        },
        {
          "indexed": false,
          "internalType": "string",
          "name": "description",
          "type": "string"
        },
        {
          "indexed": false,
          "internalType": "string",
          "name": "url",
          "type": "string"
        },
        {
          "indexed": false,
          "internalType": "address",
          "name": "user",
          "type": "address"
        }
      ],
      "name": "DocumentCreated",
      "type": "event"
    },
    {
      "inputs": [
        {
          "internalType": "string",
          "name": "name",
          "type": "string"
        },
        {
          "internalType": "string",
          "name": "docType",
          "type": "string"
        },
        {
          "internalType": "string",
          "name": "description",
          "type": "string"
        },
        {
          "internalType": "string",
          "name": "url",
          "type": "string"
        }
      ],
      "name": "createDocument",
      "outputs": [],
      "stateMutability": "nonpayable",
      "type": "function"
    },
    {
      "inputs": [
        {
          "internalType": "uint256",
          "name": "id",
          "type": "uint256"
        }
      ],
      "name": "getDocument",
      "outputs": [
        {
          "components": [
            {
              "internalType": "string",
              "name": "name",
              "type": "string"
            },
            {
              "internalType": "string",
              "name": "docType",
              "type": "string"
            },
            {
              "internalType": "string",
              "name": "description",
              "type": "string"
            },
            {
              "internalType": "string",
              "name": "url",
              "type": "string"
            },
            {
              "internalType": "address",
              "name": "user",
              "type": "address"
            }
          ],
          "internalType": "struct Storeama.Document",
          "name": "",
          "type": "tuple"
        }
      ],
      "stateMutability": "view",
      "type": "function"
    },
    {
      "inputs": [
        {
          "internalType": "address",
          "name": "tempAddress",
          "type": "address"
        }
      ],
      "name": "getDocuments",
      "outputs": [
        {
          "components": [
            {
              "internalType": "string",
              "name": "name",
              "type": "string"
            },
            {
              "internalType": "string",
              "name": "docType",
              "type": "string"
            },
            {
              "internalType": "string",
              "name": "description",
              "type": "string"
            },
            {
              "internalType": "string",
              "name": "url",
              "type": "string"
            },
            {
              "internalType": "address",
              "name": "user",
              "type": "address"
            }
          ],
          "internalType": "struct Storeama.Document[]",
          "name": "",
          "type": "tuple[]"
        }
      ],
      "stateMutability": "view",
      "type": "function"
    }
  ],
  "bytecode": "0x608060405234801561001057600080fd5b50610a4a806100206000396000f3fe608060405234801561001057600080fd5b50600436106100415760003560e01c806327f50a2d146100465780633f9b250a1461006f5780637fd12d941461008f575b600080fd5b610059610054366004610639565b6100a4565b6040516100669190610737565b60405180910390f35b61008261007d366004610799565b6101c6565b60405161006691906107b2565b6100a261009d366004610868565b610449565b005b606060006100b160005490565b90506000808267ffffffffffffffff8111156100cf576100cf6107c5565b60405190808252806020026020018201604052801561010857816020015b6100f5610568565b8152602001906001900390816100ed5790505b50905060005b838110156101bd576001600160a01b0386166001600061012e848361092b565b81526020810191909152604001600020600401546001600160a01b0316036101ab57600061015d82600161092b565b9050600083828151811061017357610173610943565b602002602001015190508084868151811061019057610190610943565b60209081029190910101526101a660018661092b565b945050505b806101b581610959565b91505061010e565b50949350505050565b6101ce610568565b60008281526001602052604090819020815160a081019092528054829082906101f690610972565b80601f016020809104026020016040519081016040528092919081815260200182805461022290610972565b801561026f5780601f106102445761010080835404028352916020019161026f565b820191906000526020600020905b81548152906001019060200180831161025257829003601f168201915b5050505050815260200160018201805461028890610972565b80601f01602080910402602001604051908101604052809291908181526020018280546102b490610972565b80156103015780601f106102d657610100808354040283529160200191610301565b820191906000526020600020905b8154815290600101906020018083116102e457829003601f168201915b5050505050815260200160028201805461031a90610972565b80601f016020809104026020016040519081016040528092919081815260200182805461034690610972565b80156103935780601f1061036857610100808354040283529160200191610393565b820191906000526020600020905b81548152906001019060200180831161037657829003601f168201915b505050505081526020016003820180546103ac90610972565b80601f01602080910402602001604051908101604052809291908181526020018280546103d890610972565b80156104255780601f106103fa57610100808354040283529160200191610425565b820191906000526020600020905b81548152906001019060200180831161040857829003601f168201915b5050509183525050600491909101546001600160a01b031660209091015292915050565b610457600080546001019055565b600080546040805160a08101825287815260208082018890528183018790526060820186905233608083015283855260018152919093208351805193949391926104a6928492909101906105a0565b5060208281015180516104bf92600185019201906105a0565b50604082015180516104db9160028401916020909101906105a0565b50606082015180516104f79160038401916020909101906105a0565b5060809190910151600490910180546001600160a01b0319166001600160a01b039092169190911790556040517f33b018a42cf0682e617ed071938735bace8c0fb710a99e96f3f25bda04dd8f299061055990879087908790879033906109ac565b60405180910390a15050505050565b6040518060a001604052806060815260200160608152602001606081526020016060815260200160006001600160a01b031681525090565b8280546105ac90610972565b90600052602060002090601f0160209004810192826105ce5760008555610614565b82601f106105e757805160ff1916838001178555610614565b82800160010185558215610614579182015b828111156106145782518255916020019190600101906105f9565b50610620929150610624565b5090565b5b808211156106205760008155600101610625565b60006020828403121561064b57600080fd5b81356001600160a01b038116811461066257600080fd5b9392505050565b6000815180845260005b8181101561068f57602081850181015186830182015201610673565b818111156106a1576000602083870101525b50601f01601f19169290920160200192915050565b6000815160a084526106cb60a0850182610669565b9050602083015184820360208601526106e48282610669565b915050604083015184820360408601526106fe8282610669565b915050606083015184820360608601526107188282610669565b6080948501516001600160a01b03169590940194909452509092915050565b6000602080830181845280855180835260408601915060408160051b870101925083870160005b8281101561078c57603f1988860301845261077a8583516106b6565b9450928501929085019060010161075e565b5092979650505050505050565b6000602082840312156107ab57600080fd5b5035919050565b60208152600061066260208301846106b6565b634e487b7160e01b600052604160045260246000fd5b600082601f8301126107ec57600080fd5b813567ffffffffffffffff80821115610807576108076107c5565b604051601f8301601f19908116603f0116810190828211818310171561082f5761082f6107c5565b8160405283815286602085880101111561084857600080fd5b836020870160208301376000602085830101528094505050505092915050565b6000806000806080858703121561087e57600080fd5b843567ffffffffffffffff8082111561089657600080fd5b6108a2888389016107db565b955060208701359150808211156108b857600080fd5b6108c4888389016107db565b945060408701359150808211156108da57600080fd5b6108e6888389016107db565b935060608701359150808211156108fc57600080fd5b50610909878288016107db565b91505092959194509250565b634e487b7160e01b600052601160045260246000fd5b6000821982111561093e5761093e610915565b500190565b634e487b7160e01b600052603260045260246000fd5b60006001820161096b5761096b610915565b5060010190565b600181811c9082168061098657607f821691505b6020821081036109a657634e487b7160e01b600052602260045260246000fd5b50919050565b60a0815260006109bf60a0830188610669565b82810360208401526109d18188610669565b905082810360408401526109e58187610669565b905082810360608401526109f98186610669565b91505060018060a01b0383166080830152969550505050505056fea26469706673582212209dda58fdebca36f7a144fd96a66693ec06f37d22fe79a0869e3d90045652697b64736f6c634300080d0033",
  "linkReferences": {},
  "deployedLinkReferences": {}
}