{
  "_format": "hh-sol-artifact-1",
  "contractName": "Storeama",
  "sourceName": "contracts/Storeama.sol",
  "abi": [
    {
      "inputs": [],
      "stateMutability": "nonpayable",
      "type": "constructor"
    },
    {
      "anonymous": false,
      "inputs": [
        {
          "indexed": false,
          "internalType": "string",
          "name": "name",
          "type": "string"
        },
        {
          "indexed": false,
          "internalType": "string",
          "name": "docType",
          "type": "string"
        },
        {
          "indexed": false,
          "internalType": "string",
          "name": "description",
          "type": "string"
        },
        {
          "indexed": false,
          "internalType": "string",
          "name": "url",
          "type": "string"
        },
        {
          "indexed": false,
          "internalType": "address",
          "name": "user",
          "type": "address"
        }
      ],
      "name": "DocumentCreated",
      "type": "event"
    },
    {
      "inputs": [
        {
          "internalType": "string",
          "name": "name",
          "type": "string"
        },
        {
          "internalType": "string",
          "name": "docType",
          "type": "string"
        },
        {
          "internalType": "string",
          "name": "description",
          "type": "string"
        },
        {
          "internalType": "string",
          "name": "url",
          "type": "string"
        }
      ],
      "name": "createDocument",
      "outputs": [],
      "stateMutability": "payable",
      "type": "function"
    },
    {
      "inputs": [
        {
          "internalType": "uint256",
          "name": "id",
          "type": "uint256"
        }
      ],
      "name": "getDocument",
      "outputs": [
        {
          "components": [
            {
              "internalType": "string",
              "name": "name",
              "type": "string"
            },
            {
              "internalType": "string",
              "name": "docType",
              "type": "string"
            },
            {
              "internalType": "string",
              "name": "description",
              "type": "string"
            },
            {
              "internalType": "string",
              "name": "url",
              "type": "string"
            },
            {
              "internalType": "address",
              "name": "user",
              "type": "address"
            }
          ],
          "internalType": "struct Storeama.Document",
          "name": "",
          "type": "tuple"
        }
      ],
      "stateMutability": "view",
      "type": "function"
    },
    {
      "inputs": [
        {
          "internalType": "address",
          "name": "tempAddress",
          "type": "address"
        }
      ],
      "name": "getDocuments",
      "outputs": [
        {
          "components": [
            {
              "internalType": "string",
              "name": "name",
              "type": "string"
            },
            {
              "internalType": "string",
              "name": "docType",
              "type": "string"
            },
            {
              "internalType": "string",
              "name": "description",
              "type": "string"
            },
            {
              "internalType": "string",
              "name": "url",
              "type": "string"
            },
            {
              "internalType": "address",
              "name": "user",
              "type": "address"
            }
          ],
          "internalType": "struct Storeama.Document[]",
          "name": "",
          "type": "tuple[]"
        }
      ],
      "stateMutability": "view",
      "type": "function"
    }
  ],
  "bytecode": "0x608060405234801561001057600080fd5b5061113b806100206000396000f3fe6080604052600436106100345760003560e01c806327f50a2d146100395780633f9b250a146100765780637fd12d94146100b3575b600080fd5b34801561004557600080fd5b50610060600480360381019061005b919061072e565b6100cf565b60405161006d9190610947565b60405180910390f35b34801561008257600080fd5b5061009d6004803603810190610098919061099f565b610238565b6040516100aa9190610a57565b60405180910390f35b6100cd60048036038101906100c89190610bae565b610503565b005b606060006100dd6000610653565b90506000808267ffffffffffffffff8111156100fc576100fb610a83565b5b60405190808252806020026020018201604052801561013557816020015b610122610677565b81526020019060019003908161011a5790505b50905060005b8381101561022c578573ffffffffffffffffffffffffffffffffffffffff166001600060018461016b9190610cb4565b815260200190815260200160002060040160009054906101000a900473ffffffffffffffffffffffffffffffffffffffff1673ffffffffffffffffffffffffffffffffffffffff16036102195760006001826101c79190610cb4565b905060008382815181106101de576101dd610ce8565b5b60200260200101519050808486815181106101fc576101fb610ce8565b5b60200260200101819052506001856102149190610cb4565b945050505b808061022490610d17565b91505061013b565b50809350505050919050565b610240610677565b600160008381526020019081526020016000206040518060a001604052908160008201805461026e90610d8e565b80601f016020809104026020016040519081016040528092919081815260200182805461029a90610d8e565b80156102e75780601f106102bc576101008083540402835291602001916102e7565b820191906000526020600020905b8154815290600101906020018083116102ca57829003601f168201915b5050505050815260200160018201805461030090610d8e565b80601f016020809104026020016040519081016040528092919081815260200182805461032c90610d8e565b80156103795780601f1061034e57610100808354040283529160200191610379565b820191906000526020600020905b81548152906001019060200180831161035c57829003601f168201915b5050505050815260200160028201805461039290610d8e565b80601f01602080910402602001604051908101604052809291908181526020018280546103be90610d8e565b801561040b5780601f106103e05761010080835404028352916020019161040b565b820191906000526020600020905b8154815290600101906020018083116103ee57829003601f168201915b5050505050815260200160038201805461042490610d8e565b80601f016020809104026020016040519081016040528092919081815260200182805461045090610d8e565b801561049d5780601f106104725761010080835404028352916020019161049d565b820191906000526020600020905b81548152906001019060200180831161048057829003601f168201915b505050505081526020016004820160009054906101000a900473ffffffffffffffffffffffffffffffffffffffff1673ffffffffffffffffffffffffffffffffffffffff1673ffffffffffffffffffffffffffffffffffffffff16815250509050919050565b61050d6000610661565b60006105196000610653565b90506040518060a001604052808681526020018581526020018481526020018381526020013373ffffffffffffffffffffffffffffffffffffffff168152506001600083815260200190815260200160002060008201518160000190816105809190610f6b565b5060208201518160010190816105969190610f6b565b5060408201518160020190816105ac9190610f6b565b5060608201518160030190816105c29190610f6b565b5060808201518160040160006101000a81548173ffffffffffffffffffffffffffffffffffffffff021916908373ffffffffffffffffffffffffffffffffffffffff1602179055509050507f33b018a42cf0682e617ed071938735bace8c0fb710a99e96f3f25bda04dd8f298585858533604051610644959493929190611096565b60405180910390a15050505050565b600081600001549050919050565b6001816000016000828254019250508190555050565b6040518060a0016040528060608152602001606081526020016060815260200160608152602001600073ffffffffffffffffffffffffffffffffffffffff1681525090565b6000604051905090565b600080fd5b600080fd5b600073ffffffffffffffffffffffffffffffffffffffff82169050919050565b60006106fb826106d0565b9050919050565b61070b816106f0565b811461071657600080fd5b50565b60008135905061072881610702565b92915050565b600060208284031215610744576107436106c6565b5b600061075284828501610719565b91505092915050565b600081519050919050565b600082825260208201905092915050565b6000819050602082019050919050565b600081519050919050565b600082825260208201905092915050565b60005b838110156107c15780820151818401526020810190506107a6565b60008484015250505050565b6000601f19601f8301169050919050565b60006107e982610787565b6107f38185610792565b93506108038185602086016107a3565b61080c816107cd565b840191505092915050565b610820816106f0565b82525050565b600060a083016000830151848203600086015261084382826107de565b9150506020830151848203602086015261085d82826107de565b9150506040830151848203604086015261087782826107de565b9150506060830151848203606086015261089182826107de565b91505060808301516108a66080860182610817565b508091505092915050565b60006108bd8383610826565b905092915050565b6000602082019050919050565b60006108dd8261075b565b6108e78185610766565b9350836020820285016108f985610777565b8060005b85811015610935578484038952815161091685826108b1565b9450610921836108c5565b925060208a019950506001810190506108fd565b50829750879550505050505092915050565b6000602082019050818103600083015261096181846108d2565b905092915050565b6000819050919050565b61097c81610969565b811461098757600080fd5b50565b60008135905061099981610973565b92915050565b6000602082840312156109b5576109b46106c6565b5b60006109c38482850161098a565b91505092915050565b600060a08301600083015184820360008601526109e982826107de565b91505060208301518482036020860152610a0382826107de565b91505060408301518482036040860152610a1d82826107de565b91505060608301518482036060860152610a3782826107de565b9150506080830151610a4c6080860182610817565b508091505092915050565b60006020820190508181036000830152610a7181846109cc565b905092915050565b600080fd5b600080fd5b7f4e487b7100000000000000000000000000000000000000000000000000000000600052604160045260246000fd5b610abb826107cd565b810181811067ffffffffffffffff82111715610ada57610ad9610a83565b5b80604052505050565b6000610aed6106bc565b9050610af98282610ab2565b919050565b600067ffffffffffffffff821115610b1957610b18610a83565b5b610b22826107cd565b9050602081019050919050565b82818337600083830152505050565b6000610b51610b4c84610afe565b610ae3565b905082815260208101848484011115610b6d57610b6c610a7e565b5b610b78848285610b2f565b509392505050565b600082601f830112610b9557610b94610a79565b5b8135610ba5848260208601610b3e565b91505092915050565b60008060008060808587031215610bc857610bc76106c6565b5b600085013567ffffffffffffffff811115610be657610be56106cb565b5b610bf287828801610b80565b945050602085013567ffffffffffffffff811115610c1357610c126106cb565b5b610c1f87828801610b80565b935050604085013567ffffffffffffffff811115610c4057610c3f6106cb565b5b610c4c87828801610b80565b925050606085013567ffffffffffffffff811115610c6d57610c6c6106cb565b5b610c7987828801610b80565b91505092959194509250565b7f4e487b7100000000000000000000000000000000000000000000000000000000600052601160045260246000fd5b6000610cbf82610969565b9150610cca83610969565b9250828201905080821115610ce257610ce1610c85565b5b92915050565b7f4e487b7100000000000000000000000000000000000000000000000000000000600052603260045260246000fd5b6000610d2282610969565b91507fffffffffffffffffffffffffffffffffffffffffffffffffffffffffffffffff8203610d5457610d53610c85565b5b600182019050919050565b7f4e487b7100000000000000000000000000000000000000000000000000000000600052602260045260246000fd5b60006002820490506001821680610da657607f821691505b602082108103610db957610db8610d5f565b5b50919050565b60008190508160005260206000209050919050565b60006020601f8301049050919050565b600082821b905092915050565b600060088302610e217fffffffffffffffffffffffffffffffffffffffffffffffffffffffffffffffff82610de4565b610e2b8683610de4565b95508019841693508086168417925050509392505050565b6000819050919050565b6000610e68610e63610e5e84610969565b610e43565b610969565b9050919050565b6000819050919050565b610e8283610e4d565b610e96610e8e82610e6f565b848454610df1565b825550505050565b600090565b610eab610e9e565b610eb6818484610e79565b505050565b5b81811015610eda57610ecf600082610ea3565b600181019050610ebc565b5050565b601f821115610f1f57610ef081610dbf565b610ef984610dd4565b81016020851015610f08578190505b610f1c610f1485610dd4565b830182610ebb565b50505b505050565b600082821c905092915050565b6000610f4260001984600802610f24565b1980831691505092915050565b6000610f5b8383610f31565b9150826002028217905092915050565b610f7482610787565b67ffffffffffffffff811115610f8d57610f8c610a83565b5b610f978254610d8e565b610fa2828285610ede565b600060209050601f831160018114610fd55760008415610fc3578287015190505b610fcd8582610f4f565b865550611035565b601f198416610fe386610dbf565b60005b8281101561100b57848901518255600182019150602085019450602081019050610fe6565b868310156110285784890151611024601f891682610f31565b8355505b6001600288020188555050505b505050505050565b600082825260208201905092915050565b600061105982610787565b611063818561103d565b93506110738185602086016107a3565b61107c816107cd565b840191505092915050565b611090816106f0565b82525050565b600060a08201905081810360008301526110b0818861104e565b905081810360208301526110c4818761104e565b905081810360408301526110d8818661104e565b905081810360608301526110ec818561104e565b90506110fb6080830184611087565b969550505050505056fea26469706673582212203c7063205e65ed91aaa7ac33e5965e2247167506918171c2005243073a3c7d1e64736f6c63430008110033",
  "linkReferences": {},
  "deployedLinkReferences": {}
}